S01500004156525061746866696E6465722E7372656321
S11300000C943C010C9464010C9464010C94860ED1
S11300100C9464010C9464010C9464010C946401C8
S11300200C9464010C9464010C9464010C946E01AE
S11300300C9464010C9464010C9464010C946401A8
S11300400C9464010C9464010C9464010C94640198
S11300500C946401420853085A086008670886082B
S11300608F089808A108A908A908A908A908A90837
S1130070A908A908A908A908A908A908A908A908F4
S1130080A908A908A908A908A908A908A908A908E4
S1130090A908A90842084A0853085A0860086708CA
S11300A06D0875087E08084AD73B3BCE016E84BCB8
S11300B0BFFDC12F3D6C74319ABD56833DDA3D00BE
S11300C0C77F11BED9E4BB4C3E916BAAAABE000007
S11300D000803F05A84CCDB2D44EB93836A9020CE5
S11300E050B9918688083CA6AAAA2ABE00000080BE
S11300F03F07634236B79BD8A71A39685618AEBA79
S1130100AB558C1D3CB7CC5763BD6DEDFD753EF60C
S1130110177231BF000000803F08000000BE922427
S113012049123EABAAAA2ABECDCCCC4C3E0000005C
S113013080BEABAAAAAA3E00000000BF0000008057
S11301403F0000000000084178D3BB4387D1133D32
S1130150190E3CC3BD4282AD2B3E68EC8276BED9FB
S11301608FE1A93E4C80EFFFBE01C4FF7F3F00003A
S1130170000000006E616E00696E660000407A1037
S1130180F35A00A0724E18090010A5D4E80000E844
S11301907648170000E40B54020000CA9A3B0000A2
S11301A000E1F505000080969800000040420F0031
S11301B00000A08601000000102700000000E803F2
S11301C0000000006400000000000A0000000000BD
S11301D00100000000002C76D888DC674F0823DF7C
S11301E0C1DFAE59E1B1B796E5E3E453C63AE6514F
S11301F0997696E8E6C28426EB898C9B62ED407C76
S11302006FFCEFBC9C9F40F2BAA56FA5F490055A11
S11302102AF75C936B6CF9676DC11BFCE0E40D4736
S1130220FEF520E6B500D0ED902E03009435770559
S11302300080841E080000204E0A000000C80C3311
S11302403333330F986E12831141EF8D2114893BA0
S1130250E65516CFFEE6DB18D1844B381BF77C1D20
S1130260901DA4BBE424203284725E228100C9F173
S113027024ECA1E53D279B0E11241FBECFE5D8E059
S1130280DEBFCDBF12E0A0E6B0E0E2E3F4E302C0DB
S113029005900D92A632B107D9F722E0A6E2B2E0AA
S11302A001C01D92AE3EB207E1F711E0CCE3D1E00C
S11302B004C02197FE010E944017CB33D107C9F730
S11302C00E94760E0C94171A0C94000083B7836076
S11302D083BF89B7816089BF789408951F920F9274
S11302E00FB60F9211242F933F934F935F936F9305
S11302F07F938F939F93AF93BF93EF93FF93BFB776
S113030080912602909127029395909327028093DF
S11303102602E0912602F0912702E93E83E0F807E5
S113032050F1209128023091290240912A025091E3
S11303302B0260912C0270912D0280912E029091DB
S11303402F02A1E00E94D91720932802309329029A
S113035040932A0250932B0260932C0270932D0237
S113036080932E0290932F02E85EF340F0932702CD
S1130370E0932602CECFBFBFFF91EF91BF91AF9123
S11303809F918F917F916F915F914F913F912F91A9
S11303900F900FBE0F901F901895F894209128028B
S11303A03091290240912A0250912B0260912C0233
S11303B070912D0280912E0290912F0278940895CD
S11303C0FC01108211821382128214821582168219
S11303D01782108612861186138614861586168651
S11303E01786118A108A128A138A148A158A168A21
S11303F0108E178A118E128E138E148E158E12A2E1
S113040013A214A215A216A217A210AA11AA12AA24
S113041013AA14AA15AA16AE17AEDC01DE96169618
S11304201D921D921D921C9219971E961C92119654
S11304301C92119716961D921D921D921C9219974B
S11304401E961C9211961C92119716961D921D923F
S11304501D921C9219971E961C9211961C9211972C
S113046016961D921D921D921C9219971E961C920F
S113047011961C92119716961D921D921D921C9214
S113048019971E961C9211961C92509682E08C939A
S113049011961C9211961C9211961C92119611960B
S11304A01C921E92129611961C921E9212961D92E6
S11304B01D921D921C92139714961D921D921D92CB
S11304C01C92139714961D921D921D921C921397C1
S11304D014961D921D921D921C921397EA57FF4F7A
S11304E0108208958FEB860F863020F4862F90E0DB
S11304F0C79708958FE9860F863028F4862F90E0F9
S1130500875591090895862F90E0C09708950F9319
S11305101F93CF93DF93EC0118811D3209F42196C8
S1130520CE010E94FD179B01AC01A4E6B0E00E943D
S11305304617AB01BC012881822F90E0C0970A972F
S113054010F42196F8CF2E3259F52981822F90E0AC
S1130550C0978A30910520F59C01880F991F220FBE
S1130560331F220F331F220F331F820F931F092EB5
S1130570000CAA0BBB0B480F591F6A1F7B1F8A81F3
S1130580282F30E0205331092A30310548F4C901BD
S1130590092E000CAA0BBB0B480F591F6A1F7B1FA7
S11305A01D3251F48A019B0166277727CB01601B1A
S11305B0710B820B930B02C0CB01BA01DF91CF9177
S11305C01F910F9108952F923F924F925F926F92D5
S11305D07F928F929F92AF92BF92CF92DF92EF92CF
S11305E0FF920F931F93CF93DF93EC011B010E94A3
S11305F0FD1724E630E040E050E00E941E17290178
S11306003A019B01AC014427552760E876E988E963
S113061090E00E940E174B015C01F101518240826F
S11306202881822F90E0C0970A9710F42196F8CF82
S11306302E3229F56894DD24D7F806E9F8E9E0E0DC
S113064021961881812F90E0C0970A97C0F46D2DF0
S1130650702F8F2F9E2F2AE030E040E050E00E9460
S11306601E17D22E032FF42FE52FA12FB0E0D09721
S11306700E945117860E971EA81EB91EE1CFD50100
S1130680C401880F991FAA1FBB1F880F991FAA1F97
S1130690BB1F880D991DAA1DBB1DBC01CD016F5F39
S11306A07F4F8F4F9F4F2BEA3AEA4AEA5AEA0E9459
S11306B0591700E20E94BD17822E932EA42EB52E48
S11306C0D501C401B695A79597958795F1018283C5
S11306D09383A483B5831682DF91CF911F910F91E9
S11306E0FF90EF90DF90CF90BF90AF909F908F904E
S11306F07F906F905F904F903F902F9008954F920E
S11307005F926F927F928F929F92AF92BF92CF929D
S1130710DF92EF92FF920F931F93CF93DF93CDB7A6
S1130720DEB760970FB6F894DEBF0FBECDBF698306
S11307307A838B839C83CA01B90127013801A601FE
S113074095010E94B00E25E33AEF4EE85CE30E9467
S113075061116B017C010E941E126D877E878F8759
S1130760988BC701B6010E94940F6D837E838F839B
S1130770988725E33AEF4EE85CE369817A818B81BF
S11307809C810E9461116B017C0125E33AEF4EE8E4
S11307905CE3C301B2010E9461112B013C01C7015A
S11307A0B6010E941E124B015C01C701B6010E94F2
S11307B0940F69837A838B839C83C301B2010E9463
S11307C01E1269877A878B879C87C301B2010E94B6
S11307D0940F6B017C0129853A854B855C85698181
S11307E07A818B819C810E9461112B013C01A701BC
S11307F09601C501B4010E9461119B01AC016D8198
S11308007E818F8198850E9461119B01AC01C30197
S1130810B2010E94B00E20E030E040E050E40E94BB
S1130820CE112B013C01A70196016D857E858F8534
S113083098890E94611120E030E040E050E40E9479
S1130840CE119B01AC01C301B2010E94B10E0E9402
S11308502C122B013C0129853A854B855C85C50109
S1130860B4010E9461114B015C01A70196016981E9
S11308707A818B819C810E9461119B01AC016D8105
S11308807E818F8198850E9461119B01AC01C50115
S1130890B4010E94B10E9B01AC01C301B2010E94DC
S11308A0300F26E73BE742EC5AE40E946111609660
S11308B00FB6F894DEBF0FBECDBFDF91CF911F916D
S11308C00F91FF90EF90DF90CF90BF90AF909F90EB
S11308D08F907F906F905F904F9008954F925F92AA
S11308E06F927F928F929F92AF92BF92CF92DF923C
S11308F0EF92FF920F931F93CF93DF93CDB7DEB7A1
S113090028970FB6F894DEBF0FBECDBF69837A83F4
S11309108B839C83ED82FE820F831887C601B50109
S11309200E94B00E25E33AEF4EE85CE30E946111A9
S11309302B013C0125E33AEF4EE85CE369817A81BF
S11309408B819C810E9461114B015C0125E33AEF8C
S11309504EE85CE3C801B7010E9461116B017C01A0
S1130960C301B2010E941E126D837E838F83988718
S1130970C701B6010E94940F69837A838B839C8399
S11309809B01AC016D817E818F8198850E946111EC
S11309906D837E838F839887C501B4010E941E12E4
S11309A09B01AC0169817A818B819C810E946111D8
S11309B069837A838B839C83C301B2010E94940F61
S11309C09B01AC0169817A818B819C810E946111B8
S11309D02B013C01C501B4010E94940F4B015C0141
S11309E0C701B6010E941E129B01AC01C501B401EE
S11309F00E946111A30192010E94B00E9B01AC01FF
S1130A006D817E818F8198850E94300F6B017C01FE
S1130A1020E030E0A9010E948F0F882354F42BEDCD
S1130A203FE049EC50E4C701B6010E94B10E6B01EE
S1130A307C0121EE3EE245E652E4C701B6010E9484
S1130A40611128960FB6F894DEBF0FBECDBFDF91BB
S1130A50CF911F910F91FF90EF90DF90CF90BF90B7
S1130A60AF909F908F907F906F905F904F9008957C
S1130A7020E030E044E351E40E94B10E20E030E095
S1130A8044EB51E40E94990F0E940B106F70707830
S1130A90772334F461507109606F7F6F6F5F7F4F0C
S1130AA0660F771FFB01E456FF4F80819181089503
S1130AB0CF93DF93EC0187E0FE017096DE0112967E
S1130AC001900D928A95E1F787E0FE017796DE01A9
S1130AD0199601900D928A95E1F70E94CD012E8F0F
S1130AE03F8F48A359A381E089838883DF91CF9105
S1130AF008959B01BC01605F7F4FC9010E94E3021E
S1130B0008959B01BC01695E7F4FC9010E94E30205
S1130B100895CF92DF92EF92FF92CF93DF93EC018F
S1130B2019826A817B8180E090E00E9441106B0110
S1130B307C016C817D818E819F810E94411028E21D
S1130B403BE64EE65EE40E94990F9B01AC01C701AF
S1130B50B6010E94B10E288521119058DF91CF91E2
S1130B60FF90EF90DF90CF900895CF92DF92EF92B5
S1130B70FF92CF93DF93EC01198269857A8580E037
S1130B8090E00E9441106B017C016B857C858D8512
S1130B909E850E94411028E23BE64EE65EE40E94F8
S1130BA0990F9B01AC01C701B6010E94B10E2F85BC
S1130BB021119058DF91CF91FF90EF90DF90CF906B
S1130BC00895CF93DF93EC018E819F81A885B98529
S1130BD08A839B83AC83BD830E94CD012A873B8794
S1130BE04C875D8781E089838883DF91CF91089565
S1130BF0CF93DF93EC018E819F81A885B9858A8389
S1130C009B83AC83BD830E94CD012A873B874C879D
S1130C105D8781E089838883DF91CF910895CF93A5
S1130C20DF93EC01CB010E9487026E837F83888768
S1130C309987DF91CF910895CF93DF93EC01CB0196
S1130C400E94FD176E837F8388879987DF91CF91F8
S1130C500895FC011182628173818481958124E667
S1130C6030E040E050E00E941E17CB018053984FC3
S1130C700895CF92DF92EF92FF92FC01118262817C
S1130C807381848195810F2EF4E6CF2ED12CE12C33
S1130C90F12CF02DA70196010E941E17CA01B9017B
S1130CA0A70196010E941E17862FFF90EF90DF90F8
S1130CB0CF900895FC0111826281738184819581B2
S1130CC020E137E240E050E00E941E17822F089591
S1130CD0FC011182628173818481958120E432E474
S1130CE04FE050E00E941E17822F0895FC011182EC
S1130CF0628173818481958120E137E240E050E094
S1130D000E941E17CA01B90124E630E040E050E019
S1130D100E941E17862F0895CF92DF92EF92FF92C2
S1130D20FC01118262817381848195810F2EF4E626
S1130D30CF2ED12CE12CF12CF02DA70196010E948D
S1130D401E17CA01B901A70196010E941E17862F1A
S1130D50FF90EF90DF90CF900895CF93DF93EC0155
S1130D608A859B85AC85BD858E839F83A887B9873B
S1130D700E94CD012A833B834C835D8381E0898378
S1130D808883DF91CF910895CF93DF93EC01CB015A
S1130D900E9487026A877B878C879D87DF91CF912A
S1130DA00895CF93DF93EC018A859B85AC85BD853F
S1130DB08E839F83A887B9870E94CD012A833B83B2
S1130DC04C835D8381E089838883DF91CF9108958B
S1130DD0CF93DF93EC01CB010E94FD176A877B87D9
S1130DE08C879D87DF91CF910895CF93DF93EC019A
S1130DF0BC0140960E9410190E94CD0128A339A37A
S1130E004AA35BA381E08DA38CA3DF91CF910895C6
S1130E1040E150E00E9417190895CF92DF92FF92AB
S1130E200F931F93CF93DF93EC01FC01EB57FF4F1C
S1130E30F080FF2009F4A0C0319660810E94720204
S1130E40182FFE01E957FF4F6081CE010E94720204
S1130E5020E1129F800D1124FE01EC57FF4F908179
S1130E6089137BC0B59680819181A281B38101965B
S1130E70A11DB11D80839183A283B3837197808167
S1130E80882361F0399680819181A281B381019692
S1130E90A11DB11D80839183A283B383FE01EB5610
S1130EA0FF4F80818823E9F08130B9F5CE01829625
S1130EB00E94E105CE01C0960E94F805FE01E856A5
S1130EC0FF4F8081882349F1CE010E945805CE014D
S1130ED0CE960E94AD06CE01845B9F4F0E94AD0664
S1130EE01CC0CE01C0960E94F805FE01E856FF4FD3
S1130EF08081882341F0CE010E945805CE01865A94
S1130F009F4F0E94AD06CE0188599F4F0E94D10683
S1130F10CE018A589F4F0E94AD06FE01E556FF4F51
S1130F20008111810115110509F442C1FE01E55644
S1130F30FF4F0190F081E02D66A177A1F80186A111
S1130F4097A10E940719892B09F032C1C8010E9498
S1130F50F506F80102A513A5E5CFCB55DF4F88812F
S1130F609981AA81BB810196A11DB11D88839983B2
S1130F70AA83BB83F12C1CC1FC01EA56FF4F80817C
S1130F80811164C06E01F6E8CF0ED11C62E670E0F8
S1130F90C6010E940719892B39F068E670E0C60182
S1130FA00E940719892B31F481E0FE01EB56FF4FB3
S1130FB0808318C06EE670E0C6010E940719892B71
S1130FC039F064E770E0C6010E940719892B29F4FF
S1130FD0FE01EB56FF4F108205C082E0FE01EB5686
S1130FE0FF4F8083FE01E756FF4F80819181329647
S1130FF091838083FE01E556FF4F00811181011525
S1131000110589F0B601F80186A197A10E9407197C
S113101099234CF4F80182A593A5FE01E556FF4FF0
S113102091838083E7CF0115110509F4C1C0B6018E
S1131030F80186A197A10E940719181619060CF049
S1131040B7C0C556DF4F19821882B2C0FE01EB56F5
S1131050FF4FE081E23009F47CC0DE01AA57BF4FA4
S11310609C91992309F475C020E2E29FF0011124B8
S1131070E82B3197E932F10508F06BC0E65DFF4FCC
S11310800C944017BE016A577F4FCE01C0960E9450
S11310900F065FC081E0913409F080E0FE01E8565C
S11310A0FF4F808356C0BE016A577F4FCE010E9416
S11310B079054FC081E0933509F080E08E8B49C0FB
S11310C0BE016A577F4FCE010E94810542C081E074
S11310D0973509F080E08D8F3CC0BE016A577F4F81
S11310E0CE01CE960E94C40634C0BE016A577F4F1B
S11310F0CE01845B9F4F0E94C4062BC0BE016A5779
S11311007F4FCE0182960E941C0623C081E091335A
S113111008F480E0FE01E856FF4F80831AC0BE0148
S11311206A577F4FCE0188599F4F0E94E80611C02D
S1131130BE016A577F4FCE018A589F4F0E94C40652
S113114008C0BE016A577F4FCE01865A9F4F0E9446
S1131150C406FE01E556FF4F0081118101151105FA
S113116039F1FE01E556FF4F0190F081E02D66A1B3
S113117077A1F80186A197A10E940719892BC1F4D0
S1131180F80120A531A5FE01EA56FF4F808190E0C9
S1131190821793076CF02817390731F4BE016A5798
S11311A07F4FC8010E940807F80102A513A5D6CFF6
S11311B08F2DDF91CF911F910F91FF90DF90CF90F2
S11311C008950F931F93CF93DF93FC01EC01C35653
S11311D0DF4F88819981AA81BB810196A11DB11D30
S11311E088839983AA83BB836432A1F130F46A3083
S11311F071F06D3009F040C00AC06A3241F06C32BF
S1131200D9F5DF01AC57BF4F8C9186278C93C62F3D
S11312108F01E956FF4F80818F3050F4F801E80FB9
S1131220F11DEA57FF4F1082C8010E940D0701C04B
S113123080E0F801EA56FF4F90819F5F90833196DA
S1131240108291E0CA3209F090E0F801EB57FF4FA9
S113125090832EC0DF01A956BF4F1C9211971C9298
S113126052971C92519682E08C9350971C92E856A8
S1131270FF4F108280E01CC0DF01A956BF4F8C9144
S11312808E3048F491E0980F9C93DF01A80FB11DB4
S1131290AA57BF4F6C93DF01AB57BF4F8C9181119D
S11312A006C0EC57FF4F90816927608301C080E03E
S11312B0DF91CF911F910F91089582B3806482BB17
S11312C082B38F7B82BB0895CF93C82F85B39C2FA5
S11312D0907F8F70892B85BB0E945D0938E73A9512
S11312E0F1F725B330E1C39FC0011124922F9F7001
S11312F0892B85BB0E945D0988E78A95F1F7CF9118
S11313000895CF93C82F8BB384608BBB85B39C2F78
S1131310907F8F70892B85BB0E945D0938E73A95D1
S1131320F1F725B330E1C39FC0011124922F9F70C0
S1131330892B85BB0E945D098BB38B7F8BBB88E7B0
S11313408A95F1F7CF910895623031F0633031F02E
S1131350613029F4805C03C08C5E01C08A5A8068C5
S11313600E9464098AE68A95F1F700C0089581E035
S11313700E9464098FE99FE00197F1F700C0000023
S113138060E080E00E94A40908958CE00E94640952
S113139088E78A95F1F708958BB38B7F8BBB85B370
S11313A08F7085BB82B38F7B82BB8AB384608ABB18
S11313B084B3806F84BB81B3806481BB8FE39CE979
S11313C00197F1F700C0000085B38F70806385BB7F
S11313D00E945D098FE097E20197F1F700C00000D9
S11313E085B38F70806385BB0E945D098BED90E0AF
S11313F00197F1F700C0000085B38F70806385BB4F
S11314000E945D098BED90E00197F1F700C00000A8
S113141085B38F70806285BB0E945D098BED90E07F
S11314200197F1F700C0000088E20E94640986E099
S11314300E9464098FE00E9464090E94C5090E9409
S1131440B7090895CF93DF93FC01EF0121968081C2
S1131450882321F00E948109FE01F7CFDF91CF910B
S11314600895CF9B12C0E0916000F0916100CF011C
S113147001969093610080936000608180E392E024
S11314800E94E108882379F308950E94AC0E682F26
S113149080E392E00E94E1089091DD028917A8F3AD
S11314A00895019739F46F3F7F4F21F480E392E070
S11314B00E94E001089560E080E00E94A4098CEBA2
S11314C090E00E94220A61E080E00E94A4098BEC73
S11314D090E00E94220A80913002811103C00E9490
S11314E0310AF9CF61E080E00E94A40989ED90E01F
S11314F00E94220A2FEF89E698E121508040904013
S1131500E1F700C000000895FF920F931F93CF935B
S1131510DF9387EE90E00E94220A61E080E00E945F
S1131520A4098DEE90E00E94220A8091DD028823B6
S113153009F459C080916002882309F451C060E025
S113154085E00E94A40980E692E00E948C06D82FD0
S113155080E692E00E947606C82F80E692E00E9420
S113156068061F92DF931F92CF931F928F9383EF8E
S113157090E09F938F93CEEDD2E0DF93CF930E94C0
S11315808219CE010E94220A61E085E00E94A4092A
S113159082E592E00E942906082FF92E82E592E066
S11315A00E943906182F82E592E00E945A06FF92A3
S11315B00F931F921F931F928F938FEF90E09F932F
S11315C08F93DF93CF930E948219CE010E94220A47
S11315D08DB79EB744960FB6F8949EBF0FBE8DBFCD
S11315E00E94310AA2CFDF91CF911F910F91FF90FA
S11315F008950F931F93CF93DF9388E091E00E94A7
S1131600220A60E087E00E94A4098DE091E00E9434
S1131610220A61E080E00E94A40983E191E00E9433
S1131620220A8091DD02882309F45DC0809198022A
S1131630882309F455C060E084E00E94A409109254
S11316409902EEE9F2E080819181228133813F9316
S11316502F939F938F930EE111E01F930F93CEED81
S1131660D2E0DF93CF930E948219CE010E94220A16
S113167060E08CE00E94A4091092A702ECEAF2E078
S113168080819181228133813F932F939F938F9304
S11316901F930F93DF93CF930E948219CE010E9470
S11316A0220A61E08AE00E94A409E5EDF2E080816B
S11316B09181228133813F932F939F938F931F9323
S11316C00F93DF93CF930E948219CE010E94220AC6
S11316D08DB79EB748960FB6F8949EBF0FBE8DBFC8
S11316E00E94310A9ECFDF91CF911F910F910895EF
S11316F09F92AF92BF92CF92DF92EF92FF920F939D
S11317001F93CF93DF93CDB7DEB72E970FB6F89420
S1131710DEBF0FBECDBF912C0E94B709892D90E08A
S1131720880F991F8C01000F111F000F111F000F4C
S1131730111F081B190B0F2EFEE0EF2EF12CF02DBC
S1131740CE0101966C01E114F10481F056019FEF82
S1131750A91AB90AC8010E94021AF6018083F1E0AD
S1131760EF1AF1080F5F1F4F6501EDCF892D90E04F
S113177001969E012F5F3F4F3F932F939F938F932B
S113178082E291E09F938F930EED12E01F930F93EB
S11317900E948219C8010E94220A4B855C856D85CE
S11317A07E858F81988529853A857F936F935F9392
S11317B04F933F932F939F938F938CE291E09F934A
S11317C08F931F930F930E94821961E080E00E941F
S11317D0A409C8010E94220A0FB6F894DEBF0FBE06
S11317E0CDBF96B39923E9F386B38032A1F018F400
S11317F08031C9F023C0803439F08038F9F486B3DD
S11318008111FDCF84E11EC086B38111FDCF9920E3
S113181079F09A9413C086B38111FDCF93E19916A0
S113182061F093940BC086B38111FDCF892D0AC05A
S11318300F2EF3E19F2EF02D01C0912C96B3911140
S1131840FDCF6ACF2E960FB6F894DEBF0FBECDBF84
S1131850DF91CF911F910F91FF90EF90DF90CF9088
S1131860BF90AF909F9008958F929F92AF92BF9236
S1131870DF92EF92FF920F931F93CF93DF93CDB735
S1131880DEB72E970FB6F894DEBF0FBECDBFDE01D4
S113189011961EE0FD0111921A95E9F716E0E0E5B4
S11318A0F1E001900D921A95E1F76F8378878987AB
S11318B09A872B873C874D875E870E94780B8431FB
S11318C0E1F190E0880F991F8C01000F111F000FA8
S11318D0111F000F111F081B190B0F2EFEE0EF2E16
S11318E0F12CF02DFE013196E114F104B9F05F0101
S11318F02FEFA21AB20AD0804801C8010E94021A2E
S1131900D81621F06D2DC8010E940A1A81E0E81A48
S1131910F10884010F5F1F4FF501E6CF0E94B7095C
S113192087E391E00E94220A9FEFE9E6F8E19150F3
S1131930E040F040E1F700C000000E94B70986E4EF
S113194091E00E94220A61E080E00E94A4098BE4F5
S113195091E00E94220A2E960FB6F894DEBF0FBEC5
S1131960CDBFDF91CF911F910F91FF90EF90DF904A
S1131970BF90AF909F908F900895CF92DF92EF9297
S1131980FF920F931F93CF93DF9386E491E00E941D
S1131990220A61E080E00E94A4098BE491E00E94A5
S11319A0220A8091DD02882309F44EC0809130021E
S11319B08823B1F160E084E00E94A40980E392E00E
S11319C00E9489059F938F937F936F9306E511E09F
S11319D01F930F93CEEDD2E0DF93CF930E94821931
S11319E0CE010E94220A61E084E00E94A40980E3FF
S11319F092E00E94B5059F938F937F936F931F93FB
S1131A000F93DF93CF930E948219CE010E94220A82
S1131A108DB79EB740960FB6F8949EBF0FBE8DBF8C
S1131A2086B3883071F480E392E00E94B5056B01BF
S1131A307C0180E392E00E948905A70196010E943F
S1131A40340C0E94310AADCFDF91CF911F910F91D9
S1131A50FF90EF90DF90CF9008954F925F926F9236
S1131A607F92AF92BF92CF92DF92EF92FF920F9349
S1131A701F93CF93DF93CDB7DEB766970FB6F89475
S1131A80DEBF0FBECDBF0E94780B843109F4DCC0E9
S1131A9090E0880F991F6C01CC0CDD1CCC0CDD1C74
S1131AA0CC0CDD1CC81AD90A0EE010E0CE01019658
S1131AB05C010115110581F035019FEF691A790A5E
S1131AC0C6010E94021AF501808301501109FFEF3B
S1131AD0CF1ADF0A5301EDCF0E94B709CE01019658
S1131AE09F938F9389E591E09F938F938EED92E07E
S1131AF09F938F930E9482198EED92E00E94220A96
S1131B000F900F900F900F900F900F901F86188AD0
S1131B10198A1A8A8091DD02882309F495C080917C
S1131B203002882309F467C0AB84BC84CD84DE848E
S1131B304F80588469847A8480E392E00E94B505DA
S1131B406F87788B898B9A8B80E392E00E9489055A
S1131B50830172012F85388949895A890E947F033C
S1131B606F87788B898B9A8B61E080E00E94A4094F
S1131B70AB84BC84CD84DE844F80588469847A84A9
S1131B8080E392E00E94B5056B8B7C8B8D8B9E8BE2
S1131B9080E392E00E948905830172012B893C89CC
S1131BA04D895E890E946E040E943805182F092F02
S1131BB020E030E04AE754E46F85788989899A897E
S1131BC00E94990F0F931F939F938F937F936F930B
S1131BD081E691E09F938F938EED92E09F938F9394
S1131BE00E9482198EED92E00E94220A0FB6F894A8
S1131BF0DEBF0FBECDBF0E94310A20E030E040E2DC
S1131C0051E46F85788989899A890E948F0F882386
S1131C100CF080CF0E94B7098BE691E00E94220A63
S1131C2061E080E00E94A40987E791E00E94220A13
S1131C309FEFE9E6F8E19150E040F040E1F700C0A1
S1131C4000001092DD0266CF66960FB6F894DEBFF0
S1131C500FBECDBFDF91CF911F910F91FF90EF90F9
S1131C60DF90CF90BF90AF907F906F905F904F9038
S1131C7008950E94B70960E080E00E94A4098FE7FC
S1131C8091E00E94220A61E080E00E94A40980E9B8
S1131C9091E00E94220A86B38823E9F30E94B709DF
S1131CA081E08093DD0286B38032A1F018F48031A4
S1131CB0B9F00895803441F08038B9F486B38111C5
S1131CC0FDCF0E94840A089586B38111FDCF0E943E
S1131CD0BD0C089586B38111FDCF0E942D0D08958A
S1131CE086B38111FDCF0E94F90A089580E28BBF6B
S1131CF080E484BF78940E9466010E94CC090E940B
S1131D00A20E0E945B0A0E94390EFDCF1F920F9211
S1131D100FB60F9211248F939F939FB786B384308D
S1131D20E9F31092DD029FBF9F918F910F900FBE38
S1131D300F901F9018956FEF7FEF81E090E00E9465
S1131D40510A089583E389B910BC8AB188618AB9BC
S1131D5080B5866880BD08955F9BFECF8CB10895E1
S1131D605058BB27AA270E94C80E0C940B110E943E
S1131D70D21038F00E94D91020F039F49F3F19F4A2
S1131D8026F40C94A8100EF4E095E7FB0C94A21032
S1131D90E92F0E94301158F3BA17620773078407BA
S1131DA0950720F079F4A6F50C9452110EF4E09501
S1131DB00B2EBA2FA02D0B01B90190010C01CA0101
S1131DC0A0011124FF27591B99F0593F50F4503EAC
S1131DD068F11A16F040A22F232F342F4427585F9E
S1131DE0F3CF469537952795A795F0405395C9F7B6
S1131DF07EF41F16BA0B620B730B840BBAF091506E
S1131E00A1F0FF0FBB1F661F771F881FC2F70EC00C
S1131E10BA0F621F731F841F48F4879577956795DF
S1131E20B795F7959E3F08F0B0CF9395880F08F0CB
S1131E309927EE0F9795879508950E94D21060F028
S1131E4080E891E009F49EEF0E94D91028F040E860
S1131E5051E071F45EEF0CC00C94A8100C94521174
S1131E60E92FE0780E94301140F3092E052AB1F3DE
S1131E70261737074807590738F00E2E07F8E025CC
S1131E8069F0E025E0640AC0EF6307F8009407FAFC
S1131E90DB01B9019D01DC01CA01AD01EF930E9490
S1131EA0B00F0E940B110E94600F5F91552339F00F
S1131EB02BED3FE049E450FD49EC0C94B10E08953C
S1131EC0DF93DD27B92FBF7740E85FE316161706C7
S1131ED048075B0718F4D92F0E9459119F938F93D9
S1131EE07F936F930E946C12E6EAF0E00E94AB10BD
S1131EF00E940B112F913F914F915F910E94741199
S1131F00DD2351F09058A2EA2AED3FE049EC5FE36B
S1131F10D0785D270E94C80EDF910C940B110E94AB
S1131F207E1008F481E008950E94E210E3950C9479
S1131F301C110E94AD0F0C940B110E94D91058F083
S1131F400E94D21040F029F45F3F29F00C94A210B3
S1131F5051110C9453110C94A8100E94301168F381
S1131F609923B1F3552391F3951B550BBB27AA274E
S1131F7062177307840738F09F5F5F4F220F331F88
S1131F80441FAA1FA9F335D00E2E3AF0E0E832D050
S1131F9091505040E695001CCAF72BD0FE2F29D053
S1131FA0660F771F881FBB1F261737074807AB0725
S1131FB0B0E809F0BB0B802DBF01FF2793585F4F9A
S1131FC03AF09E3F510578F00C94A2100C945311F2
S1131FD05F3FE4F3983ED4F3869577956795B7957C
S1131FE0F7959F5FC9F7880F911D9695879597F987
S1131FF00895E1E0660F771F881FBB1F6217730700
S11320008407BA0720F0621B730B840BBA0BEE1F14
S113201088F7E09508950E9412106894B1110C9409
S1132020531108950E94381188F09F5798F0B92FE2
S11320309927B751B0F0E1F0660F771F881F991FF9
S11320401AF0BA95C9F714C0B13091F00E94521138
S1132050B1E008950C945211672F782F8827B85F48
S113206039F0B93FCCF3869577956795B395D9F751
S11320703EF490958095709561957F4F8F4F9F4F5B
S11320800895E89409C097FB3EF490958095709567
S113209061957F4F8F4F9F4F9923A9F0F92F96E9B0
S11320A0BB279395F695879577956795B795F11125
S11320B0F8CFFAF4BB0F11F460FF1BC06F5F7F4FC2
S11320C08F4F9F4F16C0882311F096E911C07723D4
S11320D021F09EE8872F762F05C0662371F096E8DD
S11320E0862F70E060E02AF09A95660F771F881FAC
S11320F0DAF7880F9695879597F90895990F000850
S1132100550FAA0BE0E8FEEF16161706E807F907C5
S1132110C0F012161306E407F50798F0621B730B60
S1132120840B950B39F40A2661F0232B242B252BE1
S113213021F408950A2609F4A140A6958FEF811D84
S1132140811D089597F99F6780E870E060E0089525
S11321509FEF80EC0895DF93CF931F930F93FF922B
S1132160EF92DF927B018C01689406C0DA2EEF01B6
S11321700E947411FE01E894A59125913591459131
S11321805591A6F3EF010E94C80EFE019701A80124
S1132190DA9469F7DF90EF90FF900F911F91CF9140
S11321A0DF91089500240A941616170618060906E6
S11321B0089500240A9412161306140605060895B9
S11321C00C94A8100E943811D8F3E894E0E0BB27DF
S11321D09F57F0F02AED3FE049EC06C0EE0FBB0F2D
S11321E0661F771F881F28F0B23A620773078407B7
S11321F028F0B25A620B730B840BE3959A9572F72D
S1132200803830F49A95BB0F661F771F881FD2F76A
S113221090480C94AC12092E0394000C11F48823FA
S113222052F0BB0F40F4BF2B11F460FF04C06F5F8A
S11322307F4F8F4F9F4F0895EF93E0FF07C0A2EAAF
S11322402AED3FE049EC5FEB0E94C80E0E940B119F
S11322500F90039401FC9058E3EDF0E00C94BF124E
S113226057FD9058440F551F59F05F3F71F0479543
S1132270880F97FB991F61F09F3F79F08795089528
S1132280121613061406551FF2CF4695F1DF08C047
S1132290161617061806991FF1CF86957105610564
S11322A008940895E894BB2766277727CB0197F90C
S11322B008959B01AC0160E070E080E89FE30C941A
S11322C0990F0E9474110C940B110E94D21038F0D3
S11322D00E94D91020F0952311F00C94A2100C94B4
S11322E0A81011240C9453110E94301170F3959F7F
S11322F0C1F3950F50E0551F629FF001729FBB27F9
S1132300F00DB11D639FAA27F00DB11DAA1F649F94
S11323106627B00DA11D661F829F2227B00DA11D47
S1132320621F739FB00DA11D621F839FA00D611DCD
S1132330221F749F3327A00D611D231F849F600DEE
S1132340211D822F762F6A2F11249F5750409AF017
S1132350F1F088234AF0EE0FFF1FBB1F661F771FA3
S1132360881F91505040A9F79E3F510580F00C946E
S1132370A2100C9453115F3FE4F3983ED4F3869576
S113238077956795B795F795E7959F5FC1F7FE2B0E
S1132390880F911D9695879597F90895FA01EE0F88
S11323A0FF1F309621053105A1F16115710561F416
S11323B08038BFE39B0749F168949038810561F048
S11323C08038BFEF9B0741F099234AF5FF3FE105B1
S11323D03105210519F1E8940894E795D901AA2358
S11323E029F4AB2FBE2FF85FD0F310C0FF5F70F459
S11323F0A695E0F7F73950F019F0FF3A38F49F77D3
S11324009F930DD00F9007FC9058089546F00C94BC
S1132410A81060E070E080E89FE308954FE79F779D
S11324205F934F933F932F930E9415132F913F91E6
S11324304F915F910E9461110C9478129F930E94B6
S1132440E2100F9007FCEE5F0C941C1119F416F4C3
S11324500C94A8100C94AA120E943811B8F3992372
S1132460C9F3B6F39F57550B87FF0E94B812002497
S1132470A0E640EA900180585695979528F4805C30
S1132480660F771F881F20F026173707480730F498
S1132490621B730B840B202931294A2BA6951794B0
S11324A00794202531254A2758F7660F771F881F80
S11324B020F026173707480730F4620B730B840BA0
S11324C0200D311D411DA09581F7B901842F91582C
S11324D0880F9695879508959B01AC010C94611122
S11324E029F416F00C94A2100C9452110C94A81018
S11324F00E943811A8F39638A0F707F80F92E894D1
S11325002BE33AEA48EB5FE70E9477110F920F92B0
S11325100F924DB75EB70F920E945D13E1EFF0E0AA
S11325200E94AB104F915F91EF91FF91E595EE1FE3
S1132530FF1F49F0FE57E0684427EE0F441FFA9549
S1132540E1F74195550B0E94D7120F9007FE0C94AA
S1132550591108959F3F31F0915020F48795779554
S11325606795B795880F911D9695879597F9089566
S113257091505040660F771F881FD2F708959F939C
S11325808F937F936F93FF93EF939B01AC010E9412
S11325906111EF91FF910E94AB102F913F914F91E8
S11325A05F910C9461110C94A2100C94AA120E94D5
S11325B03811D8F39923C9F3940F511DA3F3915003
S11325C0504094F059F0882332F0660F771F881F2B
S11325D091505040C1F79E3F51052CF7880F911D33
S11325E09695879597F908955F3FACF0983E9CF0D7
S11325F0BB27869577956795B79508F4B160939551
S1132600C1F7BB0F58F711F460FFE8CF6F5F7F4F3E
S11326108F4F9F4FE3CF0C94531116F00C94AA12D2
S11326200C94A81068940C94A2100E943811A8F37A
S11326309923C1F3AEF3DF93CF931F930F93FF92CC
S1132640C92FDD2788232AF02197660F771F881F5B
S1132650DAF720E030E040E85FEB9FE3883920F0D0
S1132660803E38F021968F770E94B10EE9E1F1E0C7
S113267004C00E94B10EE6E4F1E00E94AB108B01AD
S1132680BE01EC01FB2E6F5771097595771F880BFE
S1132690990B0E94431028E132E741E35FE30E9473
S11326A07411AF2D9801AE01FF900F911F91CF913E
S11326B0DF910E94C80E0C940B11FA01DC01AA0FE1
S11326C0BB1F9B01AC01BF5728F4222733274427A3
S11326D0507820C0B75190F4AB2F0024469537951D
S11326E02795011CA395D2F3002071F0220F331F0C
S11326F0441FB395DAF30ED00C94B00E613071051B
S1132700A0E88A07B94630F49B01AC016627772715
S113271088279078309621F0208331834283538335
S11327200895A0E1B0E0E7E9F3E10C9484177C019B
S11327301B016A01FC0117821682838181FF44C355
S11327409E012F5F3F4F3901F7019381F10193FD02
S1132750859193FF81911F01882309F431C3853248
S113276039F493FD859193FF81911F01853239F4EA
S1132770B70190E00E94461956016501E5CF10E0CB
S1132780512C912CFFE1F915D8F08B3279F038F403
S1132790803279F08332A1F4F92DF0612EC08D32AC
S11327A061F0803369F4292D21602DC0392D326008
S11327B0932E892D8460982E2AC0E92DE86015C0D7
S11327C097FC2DC020ED280F2A3088F496FE06C011
S11327D03AE0139F200D1124122F19C08AE0589E4D
S11327E0200D1124522EE92DE0629E2E10C08E324F
S11327F031F496FCE5C2F92DF0649F2E08C08C36A6
S113280021F4292D2068922E02C0883641F4F1016A
S113281093FD859193FF81911F018111B3CF9BEBB0
S1132820980F933020F4992D9061805E07C09BE946
S1132830980F933008F066C1992D9F7E96FF16E09D
S11328409F73992E853619F49064992E08C08636A4
S113285021F4392F3068932E02C01111115097FEC4
S113286007C01C3350F444244394410E27E00BC0AA
S1132870183038F027E017E005C027E09CE3492E24
S113288002C0212F412C560184E0A80EB11CF60190
S11328906081718182819381042DA3010E94241897
S11328A06C01F981FC87F0FF02C0F3FF06C091FCC4
S11328B006C092FE06C000E205C00DE203C00BE2B2
S11328C001C000E08C858C7019F001115AC29BC2C2
S11328D097FE10C04C0CFC85F4FF04C08A81813340
S11328E009F44A94141474F528E0241578F588E062
S11328F0482E2CC096FC2AC0812F90E08C159D0593
S11329009CF03CEFC3163FEFD30674F0892D80682A
S1132910982E0AC0E2E0F0E0EC0FFD1FE10FF11D7C
S11329208081803319F411501111F4CF97FE0EC039
S113293044244394410E812F90E0C816D9062CF408
S11329401C1904C04424439401C010E097FE06C03F
S11329501C141D0434F4C601019605C085E090E002
S113296002C081E090E001110196112331F0212F82
S113297030E02F5F3F4F820F931F252D30E08217E9
S1132980930714F4581A01C0512C892D897049F405
S1132990552039F0B70180E290E00E9446195A941C
S11329A0F7CF002329F0B701802F90E00E94461949
S11329B093FC09C0552039F0B70180E390E00E94F0
S11329C046195A94F7CF97FE4CC04601D7FE02C071
S11329D0812C912CC60188199909F301E80FF91F7C
S11329E0FE87ED87960124193109388B2F87012F33
S11329F010E01195019511093FEF8316930629F410
S1132A00B7018EE290E00E944619C814D9044CF034
S1132A108F8598898815990524F4ED85FE85818133
S1132A2001C080E3F1E08F1A91082D853E852F5F68
S1132A303F4F3E872D87801691062CF0B70190E01A
S1132A400E944619D9CFC814D90441F49A81963307
S1132A5020F4953319F43C8534FF81E3B70190E009
S1132A604EC08A81813319F09C859F7E9C87B70173
S1132A7090E00E944619111105C094FC18C085E627
S1132A8090E017C0B7018EE290E00E9446191E5FE5
S1132A9082E001E0080FF301E80FF11D8081B70126
S1132AA090E00E944619802F0113F3CFE6CF85E40E
S1132AB090E0B7010E944619D7FC06C0C114D104A6
S1132AC041F4EC85E4FF05C0D194C194D1088DE2B2
S1132AD001C08BE2B70190E00E94461980E32AE02E
S1132AE0C216D1042CF08F5FFAE0CF1AD108F7CFC9
S1132AF0B70190E00E944619B701C601C0960E9432
S1132B00461954C1833631F0833779F0833509F09F
S1132B1056C020C0560132E0A30EB11CF6018081DC
S1132B20898301E010E0630112C05601F2E0AF0EA8
S1132B30B11CF601C080D18096FE03C0612F70E005
S1132B4002C06FEF7FEFC6010E9426198C01F92D98
S1132B50FF7714C0560122E0A20EB11CF601C0801A
S1132B60D18096FE03C0612F70E002C06FEF7FEF4B
S1132B70C6010E94FC188C01F92DF0689F2EF3FD0C
S1132B801AC0852D90E008171907A8F4B70180E250
S1132B9090E00E9446195A94F4CFF60197FC85916F
S1132BA097FE81916F01B70190E00E944619511080
S1132BB05A94015011090115110579F7F7C08436AB
S1132BC011F0893661F5560197FE09C024E0A20E82
S1132BD0B11CF60160817181828193810AC0F2E0A7
S1132BE0AF0EB11CF60160817181072E000C880BB9
S1132BF0990BF92DFF769F2E97FF09C0909580952C
S1132C00709561957F4F8F4F9F4FF0689F2E2AE0FC
S1132C1030E0A3010E94A419C82EC6183FC0092D94
S1132C20853721F40F7E2AE030E01DC0097F8F36FE
S1132C3091F018F4883559F0C3C0803719F08837FB
S1132C4011F0BEC0006104FF09C0046007C094FE17
S1132C5008C0066006C028E030E005C020E130E08E
S1132C6002C020E132E0560107FF09C084E0A80E4B
S1132C70B11CF601608171818281938108C0F2E008
S1132C80AF0EB11CF6016081718180E090E0A30178
S1132C900E94A419C82EC6180F77902E96FE0BC05A
S1132CA0092D0E7FC11650F494FE0AC092FC08C090
S1132CB0092D0E7E05C0DC2C092D03C0DC2C01C0BF
S1132CC0D12E04FF0DC0FE01EC0DF11D8081803377
S1132CD011F4097E09C002FF06C0D394D39404C042
S1132CE0802F867809F0D39403FD11C000FF06C03D
S1132CF01C2DD51480F4150D1D190DC0D51458F4D0
S1132D00B70180E290E00E944619D394F7CFD5141E
S1132D1010F45D1801C0512C04FF10C0B70180E30A
S1132D2090E00E94461902FF17C001FD03C088E726
S1132D3090E002C088E590E0B7010CC0802F86784F
S1132D4059F001FF02C08BE201C080E207FD8DE271
S1132D50B70190E00E944619C11638F4B70180E328
S1132D6090E00E9446191150F7CFCA94F301EC0D7C
S1132D70F11D8081B70190E00E944619C110F5CF82
S1132D8015C0F4E0F51560F584E0581A93FE1FC0F1
S1132D90011127C02C8523FF2AC004E711E0392D37
S1132DA03071932EF8018491811124C0552009F4C7
S1132DB0E4CCB70180E290E00E9446195A94F6CF21
S1132DC0F7018681978126C08FEF9FEF23C0B7015B
S1132DD080E290E00E9446195A945110F8CFD8CF5F
S1132DE0512CB701802F90E00E944619D3CF08E7F9
S1132DF011E0D5CF91108052B70190E00E9446199E
S1132E000F5F1F4FCFCF23E0251510F483E0BDCF14
S1132E10512CC0CF6096E2E10C94A017DB018F9394
S1132E209F930E944617BF91AF91A29F800D911D61
S1132E30A39F900DB29F900D11240895A1E21A2E24
S1132E40AA1BBB1BFD010DC0AA1FBB1FEE1FFF1F4A
S1132E50A217B307E407F50720F0A21BB30BE40B9A
S1132E60F50B661F771F881F991F1A9469F76095E1
S1132E707095809590959B01AC01BD01CF0108959B
S1132E80EE0FFF1F0590F491E02D09940E94E517C1
S1132E90A59F900DB49F900DA49F800D911D1124AA
S1132EA00895B7FF0C9446170E944617821B930B94
S1132EB00895E894DF93CF93FC01DB010E94E517AA
S1132EC07F936F93E9019A01AC01BF93AF933F9352
S1132ED02F93DF010E94E51726F46C1B7D0B820BF8
S1132EE0930B9E01EB01FC010E94F417AF91BF917B
S1132EF02F913F910E94F417BE01CF01F9012F9148
S1132F003F91CF91DF9108952F923F924F925F921C
S1132F106F927F928F929F92AF92BF92CF92DF92E5
S1132F20EF92FF920F931F93CF93DF93CDB7DEB74A
S1132F30CA1BDB0B0FB6F894DEBF0FBECDBF0994DE
S1132F402A88398848885F846E847D848C849B8435
S1132F50AA84B984C884DF80EE80FD800C811B8143
S1132F60AA81B981CE0FD11D0FB6F894DEBF0FBE72
S1132F70CDBFED01089597FB10F8169400080F9348
S1132F80083098F00850232F342F452F562F672FE1
S1132F90782F892F902DF4CF059497958795779561
S1132FA0679557954795379527950A95AAF70F91F1
S1132FB008950024A7FD00942A0F301D401D501DC4
S1132FC0601D701D801D901D0895A29FB001B39FC8
S1132FD0C001A39F700D811D1124911DB29F700D1E
S1132FE0811D1124911D08950E94E517460F571F56
S1132FF0C81FD91F08F4319608951F93FC0199271F
S11330008827BC01E89411911032E9F3193010F0CB
S11330101E30C8F31B3251F01D3249F4689406C0C7
S11330200E943119610F711D811D911D1191105361
S11330301A30B0F33EF490958095709561957F4F6A
S11330408F4F9F4F1F910895283008F027E03327B2
S1133050DA01990F311D87FD9160009661057105B4
S113306039F432602E5F3D9330E32A95E1F70895F9
S11330709F3F30F080387105610509F03C5F3C5F8B
S11330803D93913008F08068911DDF93CF931F9397
S11330900F93FF92EF92192F987F9695E92F9695AB
S11330A09695E90FFF27EA52FE4F99273327EE241E
S11330B0FF24A701E70105900894079428F4360F2C
S11330C0E71EF81E491F511D660F771F881F991FA1
S11330D00694A1F70590079428F4E70EF81E491FFB
S11330E0561FC11D770F881F991F661F0694A1F7ED
S11330F00590079428F4F80E491F561FC71FD11DC9
S1133100880F991F661F771F0694A1F705900794EF
S113311020F4490F561FC71FD81F990F661F771F2A
S1133120881F0694A9F784911095177041F0D695DD
S1133130C79557954795F794E7941A95C1F7ECE727
S1133140F1E06894159015913591659195910590EC
S11331507FE27395E118F10A430B560BC90BD009B2
S1133160C0F7E10CF11E431F561FC91FD01D7EF48A
S1133170703311F48A95E6CFE894015030F0080FCB
S11331800AF40027021708F4202F2395022F7A331C
S113319028F079E37D932A95E9F710C07D932A9569
S11331A089F6069497956795379517951794E118BE
S11331B0F10A430B560BC90BD00998F023957E9165
S11331C073957A3308F070E37C932013B8F77E91FB
S11331D070617D9330F0839571E37D9370E32A955C
S11331E0E1F71124EF90FF900F911F91CF91DF91A0
S11331F0992787FD90950895FC01059061507040D2
S11332000110D8F7809590958E0F9F1F0895FB01AC
S1133210DC018D91019080190110D9F3990B089567
S1133220FB01DC0101900D920020E1F70895FB0100
S1133230DC014150504048F001900D920020C9F744
S113324001C01D9241505040E0F70895FC016150C7
S1133250704001900110D8F7809590958E0F9F1FB4
S11332600895592F482F372F262F660F771F881F51
S1133270991F660F771F881F991F620F731F841F82
S1133280951F660F771F881F991F08950F931F932B
S1133290CF93DF93FB01238121FD03C08FEF9FEFC9
S11332A02CC022FF16C046815781248135814217E4
S11332B0530744F4A081B1819D012F5F3F4F3183B7
S11332C020838C93268137812F5F3F4F378326835A
S11332D014C08B01EC01FB010084F185E02D0995FC
S11332E0892BE1F6D80116968D919C91179701963A
S11332F017969C938E931697CE01DF91CF911F91D1
S11333000F910895AEE0B0E0E8E8F9E10C9492176B
S11333100D891E8986E08C831A8309838FEF9FE7CA
S11333209E838D83AE01475E5F4F6F89788DCE019A
S113333001960E949113EF81F885E00FF11F10822E
S11333402E96E4E00C94AE17FA01AA27283051F126
S1133350203181F1E8946F936E7F6E5F7F4F8F4FC2
S11333609F4FAF4FB1E03ED0B4E03CD0670F781F21
S1133370891F9A1FA11D680F791F8A1F911DA11D06
S11333806A0F711D811D911DA11D20D009F468943F
S11333903F912AE0269F11243019305D3193DEF6E7
S11333A0CF010895462F4770405D4193B3E00FD09D
S11333B0C9F7F6CF462F4F70405D4A3318F0495D88
S11333C031FD4052419302D0A9F7EACFB4E0A6956B
S11333D09795879577956795BA95C9F7009761058D
S11333E0710508959B01AC010A2E069457954795E3
S11333F037952795BA95C9F7620F731F841F951FD8
S1133400A01D0895E199FECF9FBB8EBBE09A99273A
S11334108DB30895262FE199FECF9FBB8EBB2DBBA4
S11334200FB6F894E29AE19A0FBE01960895F894C3
S1053430FFCFC8
S1133432A0014750524D4300474E524D430047505E
S113344247474100474E474741004E004E4E450014
S1133452454E4500455345005353450053535700C9
S113346257535700574E57004E4E57007A007C0070
S11334728100800082008400850088008E018C0017
S11334828D0090009A0094009900980041565220B1
S11334925061746866696E64657200436F6E6E652E
S11334A26374696E672E2E2E00436F6E6E656374AD
S11334B26564202020200054696D653A00446174DB
S11334C2653A0025643A25643A2564555443002537
S11334D2642F25642F2564005361743A0048444FD5
S11334E2503A0043686B736D4661696C3A00256C0F
S11334F27500534C542D25643A257300252E3466E9
S11335022020252E346600506F736974696F6E2013
S11335125361766564004C41543A004C4F4E3A0074
S1133522555357595000256600446573743A257300
S113353200252E33664B6D20257300446573746930
S11335426E6174696F6E00526561636865640050F0
S113355242373A54264420205042363A504F5300C0
S11335625042353A4E415620205042343A44780073
S11335722447504747412C3130333135332E3531CE
S1133582372C343131322E3433302C4E2C30323904
S113359230342E3535382C452C312C31322C312E09
S11335A2302C302E302C4D2C302E302C4D2C2C2AFD
S11335B236450D0A244750524D432C3130333135B0
S11335C2332E3531372C412C343131322E343330D1
S11335D22C4E2C30323930342E3535382C452C2CA7
S11335E22C3036303132332C3030302E302C572AB6
S10935F237430D0A00003E
S9030000FC
